:10000000C0C0A4C4D9C0D8C0D7C0D6C0D5C0D4C081
:10001000D3C0D2C0D1C0D0C0CFC0CEC0CDC0CCC064
:10002000CBC0CAC0C9C00600FF0901A101850115E6
:100030000026FF00750895020900B20201C0060003
:10004000FF0901A1018502150026FF00750895082A
:100050000900B20201C00600FF0901A101850315D4
:100060000026FF00750895020900B20201C00600D3
:10007000FF0901A1018504150026FF0075089502FE
:100080000900B20201C00600FF0901A101850515A2
:100090000026FF00750895030900B20201C00600A2
:1000A000FF0901A1018506150026FF0075089504CA
:1000B0000900B20201C00600FF0901A10185071570
:1000C0000026FF00750895050900B20201C0060070
:1000D000FF0901A1018508150026FF007508950696
:1000E0000900B20201C00600FF0901A1018509153E
:1000F0000026FF00750895070900B20201C006003E
:10010000FF0901A101850A150026FF007508950861
:100110000900B20201C00902220001010080320977
:10012000040000010300000009210101000122F088
:100130000007058103080064120110010000000897
:10014000C016DF050001010200011E03480049003E
:10015000440020004400690067006F0075007400CF
:100160002000330078003400160343004F004B009A
:1001700050004F005700450048004500550004035B
:10018000090411241FBECFE5D4E0DEBFCDBF10E0CF
:10019000A0E6B0E0E4E4FCE002C005900D92A637D2
:1001A000B107D9F721E0A6E7B0E001C01D92A33C5A
:1001B000B207E1F7ECD444C523CFCF92DF92EF92A0
:1001C000FF920F93CF93DF936B017C01D42FC22F4B
:1001D00060E074E284EF90E0A70196010FD5DA01A8
:1001E000C9010497A109B109AC01BD0183E076956D
:1001F0006795579547958A95D1F7852F8F7080BD64
:1002000049B9D23011F488E801C080E8C13011F456
:10021000806303C0C23009F48062063031F00730D9
:1002200031F0053029F0866003C0826001C084602F
:1002300080BDDF91CF910F91FF90EF90DF90CF9035
:1002400008950F93899A8898919A909A22E02BB9F1
:1002500028E12AB908E020E041E0AFDFEAE0F1E080
:1002600010821182E8E8F0E0108211828CB10F91C7
:100270000895FC0191818081981B892F8F770895C3
:10028000FC0181819081891B8F7769F08081DF017A
:10029000A80FB11D12968C9190819F5F90839081E1
:1002A0009F779083089580E00895FC01818190817B
:1002B000891B8F778F3761F08181DF01A80FB11D16
:1002C00012966C9381818F5F818381818F77818387
:1002D0000895E0910A01F0E0E65FFE4F8281089503
:1002E000682F88E890E0E1CFCF93DF93EC0169912C
:1002F000662321F088E890E0D8DFF9CFDF91CF9135
:100300000895CF93C82FCF7082958F708A3010F4E4
:10031000805D01C0895CE4DFCA3010F480E301C075
:1003200087E38C0FCF91DCCF5D9B0BC08091890060
:1003300090918800891B8F7721F088E890E0A0DFFA
:100340008CB95F9B06C06CB18AE091E0AEDF81E0C2
:10035000089580E008951FBC89E08EBD8FE79EE37D
:100360009BBD8ABD089508B604FE20C088B7806191
:1003700088BF80917A0090917B00019690937B00DA
:1003800080937A002091780030917900821793074A
:1003900009F4949820917A0030917B008091760046
:1003A000909177002817390709F4969A0895949A3E
:1003B00080917A0090917B008C599F4F90937900A7
:1003C000809378000895969880917A0090917B00B0
:1003D00088519C4F90937700809376000895DF9228
:1003E000EF92FF920F931F93CF93DF93082FD92E95
:1003F000C09186006C1708F4C62F80918700811188
:100400003FC080917C0080937D00813019F4109270
:100410007E0029C0823059F4E0E6F0E0ADE7B0E0BC
:1004200081918D9380E0E836F807D1F71CC0DDEFAD
:10043000D80F8EE7E82E80E0F82E10E01D1798F414
:1004400080910B0190910A01891B8F7721F41D5F28
:1004500010937D0008C08AE091E012DFF7018193DC
:100460007F011F5FEBCF80917D00833049F4809145
:10047000890090918800891B80958F7780937E00FA
:1004800080918700A82FB0E0A358BF4F202FE02F06
:10049000FD2D9E2F921B9C1718F49D919193F9CFDF
:1004A0008C0F80938700809186008C1B8093860040
:1004B0008C2FDF91CF911F910F91FF90EF90DF90E4
:1004C00008950F931F93CF93DF93209186002223EB
:1004D00009F49CC0322F621708F4362F4091870030
:1004E000582FA42FB0E0A358BF4FFC018E2F851BBF
:1004F000831718F481918D93F9CF430F40938700B0
:10050000231B2093860021117AC080917C008130CA
:1005100009F04AC080917E00982F907F903AA9F40C
:1005200080FF02C0C09A01C0C09881FF02C0C19A7A
:1005300001C0C19882FF02C0C29A01C0C29883FF65
:1005400002C0C39A2FC0C3982DC0903BA9F480FF6E
:1005500002C0C49A01C0C49881FF02C0C59A01C0FC
:10056000C59882FF02C0A89A01C0A89883FF02C064
:10057000A99A18C0A99816C0903CA1F480FF02C0A7
:10058000AA9A01C0AA9881FF02C0AB9A01C0AB9899
:1005900082FF02C0AC9A01C0AC9883FF02C0AD9A42
:1005A00001C0AD9810DF2BC08230D9F4EDE7F0E048
:1005B000A0E6B0E085E890E021912D938E179F078B
:1005C000D9F7609161007091620080916300909111
:1005D0006400009167002091660040916500EDDDA8
:1005E0000EC0CDEFC80F0EE710E0D0E0DC1730F4FE
:1005F000F80181918F0174DEDF5FF8CFD8DE81E0F2
:1006000090918600992319F080E001C081E0DF918C
:10061000CF911F910F910895FC01808180768032E7
:10062000A1F48181813011F0893079F48281938144
:1006300080937C009927FC01E659FF4F80818093CD
:100640008600109287008FEF089580E00895CF9381
:10065000C62F2091980124FF0BC03091990128E802
:10066000232720939901FC01AAE9B1E08C2F04C053
:100670002AE520939801F7CF91919D938150E1F75E
:100680006C2F8AE991E05ED1CC5FC0939801CF9145
:100690000895CF93DF936091A901635067FDC3C0B4
:1006A0008091A601CCE0D0E0C81BD109C355DE4F34
:1006B0008091A5018D3209F0A5C0683009F0B1C064
:1006C00083EC80938D018AE58093690010928C0100
:1006D0008881807631F0CE019FDF8F3F09F481C0A1
:1006E00087C09A81109296018981811106C010926B
:1006F000970126E931E082E06FC0853019F49093CC
:10070000AA0167C0863009F04EC08B81813041F468
:1007100088E391E09093A8018093A70182E13FC014
:10072000823041F486E191E09093A8018093A70183
:1007300082E235C08330F1F4911108C08EE791E078
:100740009093A8018093A70184E029C0913041F4DF
:1007500088E691E09093A8018093A70186E11FC0ED
:100760009230E1F48AE491E09093A8018093A7018C
:100770008EE115C0813241F488E291E09093A801A6
:100780008093A70189E00BC0823241F486E290E0B9
:100790009093A8018093A70180EF01C080E090E4CE
:1007A00090938C0125C0883069F0893019F49093BA
:1007B000AC010FC08A3049F08B3059F48BE4809340
:1007C000990107C02CEA31E002C026E931E081E05E
:1007D00003C026E931E080E03093A8012093A7010F
:1007E00007C0988197FD8E8190E890938C0107C097
:1007F0009F81911104C09E81981708F4892F8093DE
:1008000068000FC080918C0187FF0BC0CE0159DEBC
:100810008F3F21F48EE18093690003C08111109213
:1008200068001092A9018091690084FF55C08091F1
:1008300068008F3F09F450C0C82F893008F0C8E025
:100840008C1B8093680090918D0188E889278093A4
:100850008D01CC2309F44BC020918C0127FF08C0E7
:100860006C2F8EE891E0BBDDC82F893078F523C06E
:100870008091A7019091A80126FF0AC0AEE8B1E0DF
:10088000FC012C2F34913D9331962150D9F708C0AB
:10089000DC01EEE8F1E02C2F3D9131932150E1F79E
:1008A0002FEF2C0F30E02F5F3F4F820F931F90935D
:1008B000A8018093A7016C2F8EE891E043D0CC5F14
:1008C000CC3041F08FEF8093680004C08FEF8093AD
:1008D0006800CEE1C093690084E190B39C7069F434
:1008E0008150D9F71092AA011092A40106C060E0CD
:1008F0008EE891E027D0C4E0E5CFDF91CF91089555
:1009000085B7826085BF8BB780648BBFE8E9F1E073
:100910008BE481838AE580830895A82FB92F80E036
:1009200090E041E050EA609530E009C02D918227C7
:100930009795879510F084279527305EC8F36F5FF1
:10094000A8F30895EADF8D939D930895CF93CFB7D1
:10095000CF93DF93C395839BE9F7839B0BC0839B66
:1009600009C0839B07C0839B05C0839B03C0839BF7
:1009700001C08BC06F93C091A601DD27C355DE4F28
:100980002F9365E5839B03C02F916F91E6CF0F9363
:100990001F934F9320E040E15F9300B30C7003FB83
:1009A00027F93F9350E03BE039C01C7040642F773B
:1009B000012F5F5F1EC0406810B31C702F7752502C
:1009C0001FC0406400B32F770C70D1F15F5F00C08F
:1009D00023C0406210B32F771C7091F15F5F00C09D
:1009E00025C00C701027515012F45D5F00001150AB
:1009F00027952C3F10B3C8F61C700127015027958E
:100A00002C3FC8F64227499300B30C7010274F7350
:100A1000115027952C3FA8F64695469510B31C70AB
:100A200079F00127015027952C3F98F66B5A60F317
:100A3000315000B3B0F600C010E41ABF002719C04F
:100A40003B503195C31BD04010E41ABF0881033CD2
:100A500009F10B34F9F02091A4011981110F12133F
:100A6000EDCF4A81441F093651F10D3211F0013E9C
:100A700029F70093AB013F915F914F911F910F9127
:100A80002F916F91CAB7C6FD65CFDF91CF91CFBFD0
:100A9000CF9118952091AB01222369F31091A90100
:100AA000112391F5343092F13093A9012093A501DF
:100AB0001091A6013BE0311B3093A60127C00091A5
:100AC000A90101300CF50AE54F7049F43091690035
:100AD00034FD1DC000936900CDE8D1E01CC0309109
:100AE000980134FD14C000939801C9E9D1E013C006
:100AF000052710E000C0000002BB1AC0052710E067
:100B0000221F1DC010E021C04AE502C032ED432F74
:100B1000C4E1D0E032E011B31C60939A02B311BB80
:100B20005CE020E865E320FF052702BB27951795C9
:100B30001C3FF0F66695B8F7B1F720FF052702BB1A
:100B4000279517951C3FD0F62795179517FF052772
:100B500000001C3F02BBB0F629913A9519F7037FBC
:100B60001091AA01110FC651D04002BB11F0109391
:100B7000A40110E41ABF086011B3137F402F437F14
:100B800054E05A95F1F702BB11BB42BB74CFF89405
:100B9000B7DE8B9A60E875E280E090E052DBDBDB49
:100BA0008C9A949A8E9A969AC098B89AC198B99A43
:100BB000C298BA9AC398BB9AC498BC9AC598BD9A71
:100BC000A898A09AA998A19AAA98A29AAB98A39A31
:100BD000AC98A49AAD98A59A2FEF83ED90E321509D
:100BE00080409040E1F700C0000094988B98789482
:100BF00050DD9ADB8111DBDBB6DBFACFA1E21A2EE6
:100C0000AA1BBB1BFD010DC0AA1FBB1FEE1FFF1FB0
:100C1000A217B307E407F50720F0A21BB30BE40B00
:100C2000F50B661F771F881F991F1A9469F7609547
:100C30007095809590959B01AC01BD01CF01089501
:040C4000F894FFCF56
:100C44000280250000010008FF5A00020802020386
:060C54000405060708007C
:00000001FF
